:02400E00F23F7F
:020000002728AF
:10000800F0000308F1000A08F2008A0183120313C2
:100018000B1921200C1824208D1B192072088A0026
:1000280071088300F00E700E09008312031302306A
:10003800EE006B30EF008821202868140B110800AF
:10004800E8140C1008008820222140303321403069
:1000580033214530332161303321013033212530BC
:1000680033210D3033210A30332101303B21403018
:10007800A002031D392803303B214030A002031D94
:1000880039284530A102031D39286130A202031D19
:10009800392848303B2180306C21203078212408D1
:1000A8009D213A30782125089D213A30782126086B
:1000B8009D212030782121089D212F30782120088A
:1000C8009D2120307821C0306C216E3078213D3060
:1000D800782142089D212F30782143089D21203026
:1000E800782120307821E53078213D30782136306C
:1000F8007821353078213530782133307821353002
:1001080078215A2164003928831603131730970081
:1001180083160313870183120313870183160313BE
:1001280006178617831203179F1183120313803053
:100138009800831603132030980008309B00813004
:1001480099009A01831203138B170B178312031359
:10015800E80183160313C7308100831203138B163B
:10016800831203138E018F01831603130C14831259
:1001780003130130900083120313E81CC1285A218D
:10018800831603138D17831603138F1D19200F1859
:1001980019208312031380306C210230EE002730BF
:1001A800EF009421C0306C210230EE003830EF00AF
:1001B80094218A1500278A11031CF8280230EE00C2
:1001C8007C30EF008821C0306C216B08A8216C08B6
:1001D800A821CC306C218A15FE278A11A8218A15FE
:1001E800FF278A11A821F728831203130800681C27
:1001F800FB280800FF30810068100800FE308100ED
:1002080068100800810168100800E81C0929080026
:100218001010FF308F0080300E30E81010140800E6
:100228001010FE308F00FF300E30E8101014080058
:1002380010108F018E01E8101014080018161819F4
:100248001A081819242908002322ED00EF0A0319B7
:10025800EE0A23223321ED03031908002A29831605
:100268000313981C35298312031399000800ED0025
:10027800203084009818522918194B298C128C1E8A
:100288003E291A088000840AED0B3E290800023036
:10029800EE004930EF0088211A083E290230EE00AE
:1002A8005A30EF008821181218163E2938306C2170
:1002B80083306C2133306C214230842128306C210A
:1002C8000C306C2106306C2102306C2106210800AC
:1002D800FB20E900690E0F394038842169080F397D
:1002E8004038842102210800FB20E900690E0F39FB
:1002F8005038842169080F3950388421FE200800BD
:100308008700BF398700080080306C219421C030F5
:100318006C211030EF0020307821EF0B8F29080076
:100328002322FF39031908007821EF0A0319EE0A7E
:100338009429B621EA006A0E0F39303E78216A08FE
:100348000F39303E78210800EA006A0E0F39B021D3
:100358006A080F39B0210800F63E0318073E3A3EF6
:1003680078210800E90001308A006908033E020785
:1003780003188A0A82000034013402340334043436
:10038800053406340734083409341034113412346F
:1003980013341434153416341734183419342034FB
:1003A8002134223423342434253426342734283481
:1003B8002934303431343234333434343534363407
:1003C8003734383439344034413442344334443493
:1003D800453446344734483449345034513452341F
:1003E80053345434553456345734583459346034AB
:1003F8006134623463346434653466346734683431
:1004080069347034713472347334743475347634B6
:100418007734783479348034813482348334843442
:1004280085348634873488348934903491349234CE
:1004380093349434953496349734983499346E08B8
:100448008A006F0882004D344134543420342034FB
:1004580043346F34723470346F34723461347434AA
:1004680069346F346E340034203447345034533494
:1004780020345234653463346534693476346534F1
:1004880072342034313420340034553441345234F9
:10049800543420346634723461346D346534203415
:1004A8006534723472346F34723400342034553405
:1004B800413452345434203420346F347634653423
:1004C800723466346C346F347734203400344D34ED
:1004D80043345534203463346C346F3463346B34B0
:1004E80020346634613469346C34653464340034DF
:1004F80052344F344D3420346334683465346334B3
:100508006B34733475346D3420346234613464343C
:10051800003420308400FF3080000008FF3C031DB9
:0E052800992A840A8F2A031008000314080081
:101E000083120313EB01EC01831603178C170C14D8
:101E100000000000831203170C082E2783120317FB
:101E20000E082E27831203178D0A03198F0A0D0837
:101E3000FE3C03191C2F042F0F080F3C031D042F19
:101E400083120313FE276B02031D2C2FFF276C0246
:101E5000031D2C2F03100800031408008312031322
:101E60000310EB0CEC0C0318EB17EC070318EB0A50
:021E7000080068
:041FFC0077340E34F4
:00000001FF
