:02400E00F23F7F
:020000002728AF
:10000800F0000308F1000A08F2008A0183120313C2
:100018000B1921200C1824208D1B192072088A0026
:1000280071088300F00E700E09008312031302306A
:10003800EE006A30EF008721202868140B110800B1
:10004800E8140C100800872021214030322140306C
:1000580032214530322161303221013032212530C0
:1000680032210D3032210A30322101303A2140301C
:10007800A002031D392803303A214030A002031D95
:100088004530A102031D39286130A202031D392819
:1000980048303A2180306B212030772124089C2178
:1000A8003A30772125089C213A30772126089C216F
:1000B8002030772121089C212F30772120089C218E
:1000C80020307721C0306B216E3077213D30772189
:1000D80042089C212F30772143089C21203077212A
:1000E80020307721E53077213D3077213630772170
:1000F8003530772135307721333077213530772106
:100108005921640039288316031317309700831682
:10011800031387018312031387018316031306173A
:100128008617831203179F118312031380309800D8
:10013800831603132030980008309B008130990003
:100148009A01831203138B170B1783120313E80109
:1001580083160313C7308100831203138B1683128F
:1001680003138E018F01831603130C1483120313D8
:100178000130900083120313E81CC028592183160C
:1001880003138D17831603138F1D19200F181920B9
:100198008312031380306B210230EE002630EF000B
:1001A8009321C0306B210230EE003730EF009321ED
:1001B8008A1500278A11031CF7280230EE007B30CD
:1001C800EF008721C0306B216B08A7216C08A7219D
:1001D800CC306B218A15FE278A11A7218A15FF27A3
:1001E8008A11A721F628831203130800681CFA282D
:1001F8000800FF30810068100800FE308100681098
:100208000800810168100800E81C0829080010107F
:10021800FF308F0080300E30E810101408001010E6
:10022800FE308F00FF300E30E81010140800101058
:100238008F018E01E81010140800181618191A08F2
:100248001819232908002222ED00EF0A0319EE0AE3
:1002580022223221ED0303190800292983160313EA
:10026800981C34298312031399000800ED002030EC
:1002780084009818512918194A298C128C1E3D2976
:100288001A088000840AED0B3D2908000230EE00B0
:100298004830EF0087211A083D290230EE00593016
:1002A800EF008721181218163D2938306B2183304A
:1002B8006B2133306B214230832128306B210C3085
:1002C8006B2106306B2102306B2105210800FA20D2
:1002D800E900690E0F394038832169080F39403821
:1002E800832101210800FA20E900690E0F395038EE
:1002F800832169080F3950388321FD2008008700C1
:10030800BF398700080080306B219321C0306B21F2
:100318001030EF0020307721EF0B8E2908002222C1
:10032800FF39031908007721EF0A0319EE0A932908
:10033800B521EA006A0E0F39303E77216A080F3975
:10034800303E77210800EA006A0E0F39AF216A08AB
:100358000F39AF210800F63E0318073E3A3E7721D1
:100368000800E90001308A006908033E0207031803
:100378008A0A820000340134023403340434053418
:100388000634073408340934103411341234133461
:1003980014341534163417341834193420342134ED
:1003A8002234233424342534263427342834293479
:1003B80030343134323433343434353436343734F9
:1003C8003834393440344134423443344434453485
:1003D8004634473448344934503451345234533411
:1003E800543455345634573458345934603461349D
:1003F8006234633464346534663467346834693429
:1004080070347134723473347434753476347734A8
:100418007834793480348134823483348434853434
:1004280086348734883489349034913492349334C0
:100438009434953496349734983499346E088A00F5
:100448006F0882004D34413454342034203443340E
:100458006F34723470346F34723461347434693484
:100468006F346E34003420344734503453342034DD
:10047800523465346334653469347634653472349F
:100488002034313420340034553441345234543417
:1004980020346634723461346D3465342034653404
:1004A800723472346F347234003420345534413429
:1004B80052345434203420346F34763465347234F2
:1004C80066346C346F347734203400344D3443341C
:1004D8005534203463346C346F3463346B342034D3
:1004E8006634613469346C346534643400345234AD
:1004F8004F344D34203463346834653463346B349A
:10050800733475346D3420346234613464340034A7
:101E000083120313EB01EC01831603178C170C14D8
:101E100000000000831203170C082E2783120317FB
:101E20000E082E27831203178D0A03198F0A0D0837
:101E3000FE3C03191C2F042F0F080F3C031D042F19
:101E400083120313FE276B02031D2C2FFF276C0246
:101E5000031D2C2F03100800031408008312031322
:101E60000310EB0CEC0C0318EB17EC070318EB0A50
:021E7000080068
:041FFC008F343B34AF
:00000001FF
