:02400E00F23F7F
:020000001F28B7
:10000800F0000308F100831203138D1B17200C184E
:100018001420710883007008031171190315090071
:1000280068140C100800831203130230EC000F3020
:10003800ED003A211E287D204030CC204030CC20D5
:100048004530CC206130CC200130CC202530CC206C
:100058000D30CC200A30CC20803005210130D4204E
:100068004030A002031D32280330D4204530A102BD
:10007800031D32286130A202031D32284830D420E3
:10008800803005212030112124084F213A301121D8
:1000980025084F213A30112126084F2120301121FF
:1000A80021084F212F30112120084F212030112104
:1000B800C03005216E3011213D30112142084F21F9
:1000C8002F30112143084F212030112120301121D8
:1000D800E53011213D301121363011213530112103
:1000E800353011213330112135301121F3206400CE
:1000F8003228831603130B309700831603138701E6
:1001080083120313870183160313061786178312B6
:1001180003179F118312031390309800831603135B
:100128002030980008309B00813099009A01831292
:1001380003138B170B178312031368108E018F019B
:10014800831603130C1483120313013090008312D7
:100158000313681CAD28F320831603138D17831629
:1001680003138F1D17200F181720831203138030D5
:1001780005210130EC00CB30ED004621C0300521CF
:100188000130EC00DC30ED00462183120313080037
:1001980083160313981CCE288312031399000800B2
:1001A800EA00203084009818EB281819E4288C12EB
:1001B8008C1ED7281A088000840AEA0BD728080062
:1001C8000130EC00ED30ED003A211A08D728013053
:1001D800EC00FE30ED003A2118121816D7283830F6
:1001E8000521833005213330052142301D21283077
:1001F80005210C3005210630052102300521342166
:1002080008002121EB006B0E0F3940381D216B08C7
:100218000F3940381D212C2108002121EB006B0EDD
:100228000F3950381D216B080F3950381D212421F2
:1002380008008700BF3987000800681C21290800CA
:100248001010FF308F0080300E3068101014080036
:100258001010FE308F00FF300E30681010140800A8
:1002680010108F018E0168101014080080300521CD
:100278004621C03005211030ED0020301121ED0B52
:1002880041290800C721FF39031908001121ED0A87
:100298000319EC0A46295A21E900690E0F39303E44
:1002A800112169080F39303E11210800EB00013097
:1002B8008A006B08033E020703188A0A820000348A
:1002C8000134023403340434053406340734083462
:1002D80009341034113412341334143415341634E8
:1002E8001734183419342034213422342334243474
:1002F8002534263427342834293430343134323400
:10030800333434343534363437343834393440348B
:100318004134423443344434453446344734483411
:100328004934503451345234533454345534563497
:100338005734583459346034613462346334643423
:1003480065346634673468346934703471347234AF
:10035800733474347534763477347834793480343B
:1003680081348234833484348534863487348834C1
:100378008934903491349234933494349534963447
:100388009734983499346C088A006D0882004D348B
:10039800413454342034203443346F34723470344C
:1003A8006F3472346134743469346F346E340034A9
:1003B8002034473450345334203452346534633451
:1003C80065346934763465347234203431342034F9
:1003D8000034553441345234543420346634723441
:1003E80061346D34653420346534723472346F345A
:1003F8007234003420345534413452345434203467
:1004080020346F3476346534723466346C346F3427
:100418007734203400344D34433455342034633435
:100428006C346F3463346B3420346634613469342B
:080438006C34653464340034B7
:00000001FF
