:02400E00F23F7F
:020000002728AF
:10000800F0000308F1000A08F2008A0183120313C2
:100018000B1921200C1824208D1B192072088A0026
:1000280071088300F00E700E09008312031302306A
:10003800EE006930EF008621202868140B110800B3
:10004800E8140C100800872020214030312140306E
:1000580031214530312161303121013031212530C4
:1000680031210D3031210A30312101303921403020
:10007800A002031D3928033039214030A002031D96
:100088004530A102031D39286130A202031D392819
:100098004830392180306A212030762124089B217C
:1000A8003A30762125089B213A30762126089B2173
:1000B8002030762121089B212F30762120089B2192
:1000C80020307621C0306A216E3076213D3076218D
:1000D80042089B212F30762143089B21203076212E
:1000E80020307621E53076213D3076213630762174
:1000F800353076213530762133307621353076210A
:100108005821640039288316031317309700831683
:10011800031387018312031387018316031306173A
:100128008617831203179F118312031380309800D8
:10013800831603132030980008309B008130990003
:100148009A01831203138B170B1783120313E80109
:1001580083160313C7308100831203138B1683128F
:1001680003138E018F01831603130C1483120313D8
:100178000130900083120313E81CC028582183160D
:1001880003138D17831603138F1D19200F181920B9
:100198008312031380306A210230EE002530EF000D
:1001A8009221C0306A210230EE003630EF009221F1
:1001B8008A1500278A11031CF6280230EE007A30CF
:1001C800EF008621C0306A216B08A6216C08A621A1
:1001D800CC306A218A15FE278A11A6218A15FF27A5
:1001E8008A11A621831203130800681CF928080045
:1001F800FF30810068100800FE3081006810080098
:10020800810168100800E81C072908001010FF3059
:100218008F0080300E30E810101408001010FE30E7
:100228008F00FF300E30E8101014080010108F01F6
:100238008E01E81010140800181618191A08181951
:10024800222908002122ED00EF0A0319EE0A2122D3
:100258003121ED0303190800282983160313981C7C
:1002680033298312031399000800ED00203084001D
:1002780098185029181949298C128C1E3C291A08DB
:100288008000840AED0B3C2908000230EE0047305C
:10029800EF0086211A083C290230EE005830EF00A2
:1002A8008621181218163C2938306A2183306A21B1
:1002B80033306A214230822128306A210C306A2189
:1002C80006306A2102306A2104210800F920E90079
:1002D800690E0F394038822169080F394038822168
:1002E80000210800F920E900690E0F3950388221F1
:1002F80069080F3950388221FC2008008700BF396F
:100308008700080080306A219221C0306A211030AD
:10031800EF0020307621EF0B8D2908002122FF39CC
:10032800031908007621EF0A0319EE0A9229B4216D
:10033800EA006A0E0F39303E76216A080F39303EDE
:1003480076210800EA006A0E0F39AE216A080F39D3
:10035800AE210800F63E0318073E3A3E7621080013
:10036800E90001308A006908033E020703188A0A77
:100378008200003401340234033404340534063472
:100388000734083409341034113412341334143453
:1003980015341634173418341934203421342234DF
:1003A800233424342534263427342834293430346B
:1003B80031343234333434343534363437343834F1
:1003C8003934403441344234433444344534463477
:1003D8004734483449345034513452345334543403
:1003E800553456345734583459346034613462348F
:1003F800633464346534663467346834693470341B
:1004080071347234733474347534763477347834A0
:100418007934803481348234833484348534863426
:1004280087348834893490349134923493349434B2
:10043800953496349734983499346E088A006F0846
:1004480082004D34413454342034203443346F34E2
:10045800723470346F3472346134743469346F3484
:100468006E340034203447345034533420345234FA
:1004780065346334653469347634653472342034D1
:100488003134203400345534413452345434203417
:100498006634723461346D346534203465347234B2
:1004A80072346F3472340034203455344134523449
:1004B8005434203420346F347634653472346634DE
:1004C8006C346F347734203400344D34433455342D
:1004D800203463346C346F3463346B3420346634C2
:1004E800613469346C3465346434003452344F34C4
:1004F8004D34203463346834653463346B34733476
:1005080075346D34203462346134643400342030FE
:100518008400FF3080000008FF3C031D972A840AEE
:0A0528008D2A0310080003140800D8
:101E000083120313EB01EC01831603178C170C14D8
:101E100000000000831203170C082E2783120317FB
:101E20000E082E27831203178D0A03198F0A0D0837
:101E3000FE3C03191C2F042F0F080F3C031D042F19
:101E400083120313FE276B02031D2C2FFF276C0246
:101E5000031D2C2F03100800031408008312031322
:101E60000310EB0CEC0C0318EB17EC070318EB0A50
:021E7000080068
:041FFC006834A7346A
:00000001FF
