:02400E00F23F7F
:020000001F28B7
:10000800F0000308F100831203138D1B14200C1851
:100018001C20710883007008031171190315090069
:10002800831203130230ED001530EE0040211B2827
:1000380068140C1008007C20E5204030EB2040308C
:10004800EB204530EB206130EB200130EB202530F0
:10005800EB200D30EB200A30EB200130F32040304C
:10006800A002031D31280330F3204530A102031DEF
:1000780031286130A202031D31284830F320803036
:10008800242120303021240855213A3030212508F8
:1000980055213A30302126085521203030212108B9
:1000A80055212F3030212008552120303021C030F3
:1000B80024216E3030213D303021420855212F3027
:1000C8003021430855212030302120303021E530BF
:1000D80030213D3030213630302135303021353037
:1000E800302133303021353030211221640031285D
:1000F800831603130B3097008316031387018312AB
:100108000313870183160313061786178312031731
:100118009F11831203138030980083160313203035
:10012800980008309B00813099009A01EA018312F7
:1001380003138B170B178312031368108E018F019B
:10014800831603130C1483120313013090008312D7
:100158000313681CAD281221831603138D17831609
:1001680003138F1D14200F181420831203138030DB
:1001780024210130ED00D130EE004C21C030242183
:100188000130ED00E230EE004C2183120313080029
:10019800681CCC2808001010FF308F0080300E300B
:1001A8006810101408001010FE308F00FF300E3059
:1001B80068101014080010108F018E0168101014B8
:1001C8000800181618191A081819E72808008316BD
:1001D8000313981CED288312031399000800EB0001
:1001E8002030840098180A29181903298C128C1EAB
:1001F800F6281A088000840AEB0BF628080001305C
:10020800ED00F330EE0040211A08F6280230ED0028
:100218000430EE00402118121816F6283830242130
:10022800833024213330242142303C2128302421BA
:100238000C3024210630242102302421DF2008003C
:10024800CC20EC006C0E0F3940383C216C080F397B
:1002580040383C21D7200800CC20EC006C0E0F3928
:1002680050383C216C080F3950383C21CF20080009
:100278008700BF3987000800803024214C21C03016
:1002880024211030EE0020303021EE0B47290800E1
:10029800CD21FF39031908003021EE0A0319ED0AB0
:1002A8004C296021E900690E0F39303E3021690878
:1002B8000F39303E30210800EC0001308A006C080C
:1002C800033E020703188A0A82000034013402340C
:1002D800033404340534063407340834093410343C
:1002E80011341234133414341534163417341834C2
:1002F8001934203421342234233424342534263448
:1003080027342834293430343134323433343434D3
:10031800353436343734383439344034413442345F
:1003280043344434453446344734483449345034EB
:100338005134523453345434553456345734583471
:1003480059346034613462346334643465346634F7
:100358006734683469347034713472347334743483
:10036800753476347734783479348034813482340F
:10037800833484348534863487348834893490349B
:100388009134923493349434953496349734983421
:1003980099346D088A006E0882004D344134543413
:1003A8002034203443346F34723470346F347234F0
:1003B8006134743469346F346E3400342034473413
:1003C80050345334203452346534633465346934DA
:1003D8007634653472342034313420340034553462
:1003E80041345234543420346634723461346D34B8
:1003F800653420346534723472346F3472340034A6
:1004080020345534413452345434203420346F3439
:1004180076346534723466346C346F34773420340F
:1004280000344D3443345534203463346C346F34E1
:1004380063346B3420346634613469346C34653425
:0404480064340034E4
:00000001FF
